{
  "contractName": "Pausable",
  "abi": [
    {
      "constant": true,
      "inputs": [],
      "name": "paused",
      "outputs": [
        {
          "name": "",
          "type": "bool"
        }
      ],
      "payable": false,
      "stateMutability": "view",
      "type": "function"
    },
    {
      "constant": false,
      "inputs": [],
      "name": "renounceOwnership",
      "outputs": [],
      "payable": false,
      "stateMutability": "nonpayable",
      "type": "function"
    },
    {
      "constant": true,
      "inputs": [],
      "name": "owner",
      "outputs": [
        {
          "name": "",
          "type": "address"
        }
      ],
      "payable": false,
      "stateMutability": "view",
      "type": "function"
    },
    {
      "constant": true,
      "inputs": [],
      "name": "isOwner",
      "outputs": [
        {
          "name": "",
          "type": "bool"
        }
      ],
      "payable": false,
      "stateMutability": "view",
      "type": "function"
    },
    {
      "constant": false,
      "inputs": [
        {
          "name": "newOwner",
          "type": "address"
        }
      ],
      "name": "transferOwnership",
      "outputs": [],
      "payable": false,
      "stateMutability": "nonpayable",
      "type": "function"
    },
    {
      "anonymous": false,
      "inputs": [],
      "name": "Pause",
      "type": "event"
    },
    {
      "anonymous": false,
      "inputs": [],
      "name": "Unpause",
      "type": "event"
    },
    {
      "anonymous": false,
      "inputs": [
        {
          "indexed": true,
          "name": "previousOwner",
          "type": "address"
        },
        {
          "indexed": true,
          "name": "newOwner",
          "type": "address"
        }
      ],
      "name": "OwnershipTransferred",
      "type": "event"
    },
    {
      "constant": false,
      "inputs": [],
      "name": "pause",
      "outputs": [],
      "payable": false,
      "stateMutability": "nonpayable",
      "type": "function"
    },
    {
      "constant": false,
      "inputs": [],
      "name": "unpause",
      "outputs": [],
      "payable": false,
      "stateMutability": "nonpayable",
      "type": "function"
    }
  ],
  "bytecode": "0x608060405260008060146101000a81548160ff021916908315150217905550336000806101000a81548173ffffffffffffffffffffffffffffffffffffffff021916908373ffffffffffffffffffffffffffffffffffffffff1602179055506000809054906101000a900473ffffffffffffffffffffffffffffffffffffffff1673ffffffffffffffffffffffffffffffffffffffff16600073ffffffffffffffffffffffffffffffffffffffff167f8be0079c531659141344cd1fd0a4f28419497f9722a3daafe3b4186f6b6457e060405160405180910390a361071b806100e96000396000f3fe608060405234801561001057600080fd5b506004361061007d5760003560e01c80638456cb591161005b5780638456cb59146100b85780638da5cb5b146100c25780638f32d59b1461010c578063f2fde38b1461012e5761007d565b80633f4ba83a146100825780635c975abb1461008c578063715018a6146100ae575b600080fd5b61008a610172565b005b61009461024d565b604051808215151515815260200191505060405180910390f35b6100b6610260565b005b6100c0610399565b005b6100ca610476565b604051808273ffffffffffffffffffffffffffffffffffffffff1673ffffffffffffffffffffffffffffffffffffffff16815260200191505060405180910390f35b61011461049f565b604051808215151515815260200191505060405180910390f35b6101706004803603602081101561014457600080fd5b81019080803573ffffffffffffffffffffffffffffffffffffffff1690602001909291905050506104f6565b005b61017a61049f565b6101ec576040517f08c379a00000000000000000000000000000000000000000000000000000000081526004018080602001828103825260208152602001807f4f776e61626c653a2063616c6c6572206973206e6f7420746865206f776e657281525060200191505060405180910390fd5b600060149054906101000a900460ff1661020557600080fd5b60008060146101000a81548160ff0219169083151502179055507f7805862f689e2f13df9f062ff482ad3ad112aca9e0847911ed832e158c525b3360405160405180910390a1565b600060149054906101000a900460ff1681565b61026861049f565b6102da576040517f08c379a00000000000000000000000000000000000000000000000000000000081526004018080602001828103825260208152602001807f4f776e61626c653a2063616c6c6572206973206e6f7420746865206f776e657281525060200191505060405180910390fd5b600073ffffffffffffffffffffffffffffffffffffffff166000809054906101000a900473ffffffffffffffffffffffffffffffffffffffff1673ffffffffffffffffffffffffffffffffffffffff167f8be0079c531659141344cd1fd0a4f28419497f9722a3daafe3b4186f6b6457e060405160405180910390a360008060006101000a81548173ffffffffffffffffffffffffffffffffffffffff021916908373ffffffffffffffffffffffffffffffffffffffff160217905550565b6103a161049f565b610413576040517f08c379a00000000000000000000000000000000000000000000000000000000081526004018080602001828103825260208152602001807f4f776e61626c653a2063616c6c6572206973206e6f7420746865206f776e657281525060200191505060405180910390fd5b600060149054906101000a900460ff161561042d57600080fd5b6001600060146101000a81548160ff0219169083151502179055507f6985a02210a168e66602d3235cb6db0e70f92b3ba4d376a33c0f3d9434bff62560405160405180910390a1565b60008060009054906101000a900473ffffffffffffffffffffffffffffffffffffffff16905090565b60008060009054906101000a900473ffffffffffffffffffffffffffffffffffffffff1673ffffffffffffffffffffffffffffffffffffffff163373ffffffffffffffffffffffffffffffffffffffff1614905090565b6104fe61049f565b610570576040517f08c379a00000000000000000000000000000000000000000000000000000000081526004018080602001828103825260208152602001807f4f776e61626c653a2063616c6c6572206973206e6f7420746865206f776e657281525060200191505060405180910390fd5b6105798161057c565b50565b600073ffffffffffffffffffffffffffffffffffffffff168173ffffffffffffffffffffffffffffffffffffffff161415610602576040517f08c379a00000000000000000000000000000000000000000000000000000000081526004018080602001828103825260268152602001806106c16026913960400191505060405180910390fd5b8073ffffffffffffffffffffffffffffffffffffffff166000809054906101000a900473ffffffffffffffffffffffffffffffffffffffff1673ffffffffffffffffffffffffffffffffffffffff167f8be0079c531659141344cd1fd0a4f28419497f9722a3daafe3b4186f6b6457e060405160405180910390a3806000806101000a81548173ffffffffffffffffffffffffffffffffffffffff021916908373ffffffffffffffffffffffffffffffffffffffff1602179055505056fe4f776e61626c653a206e6577206f776e657220697320746865207a65726f2061646472657373a265627a7a72305820765b285511f796730b22309c3b009f3c9156ee00cf0d45ef55b0e726e1471c6964736f6c63430005090032",
  "source": "\n// File: openzeppelin-solidity\\contracts\\token\\ERC20\\ERC20Basic.sol\n\npragma solidity ^0.5.9;\n\n\n/**\n * @title ERC20Basic\n * @dev Simpler version of ERC20 interface\n * See https://github.com/ethereum/EIPs/issues/179\n */\ncontract ERC20Basic {\n  function totalSupply() public view returns (uint256);\n  function balanceOf(address _who) public view returns (uint256);\n  function transfer(address _to, uint256 _value) public returns (bool);\n  event Transfer(address indexed from, address indexed to, uint256 value); \n\n}\n\n// File: openzeppelin-solidity\\contracts\\math\\SafeMath.sol\n\npragma solidity ^0.5.0;\n\n/**\n * @dev Wrappers over Solidity's arithmetic operations with added overflow\n * checks.\n *\n * Arithmetic operations in Solidity wrap on overflow. This can easily result\n * in bugs, because programmers usually assume that an overflow raises an\n * error, which is the standard behavior in high level programming languages.\n * `SafeMath` restores this intuition by reverting the transaction when an\n * operation overflows.\n *\n * Using this library instead of the unchecked operations eliminates an entire\n * class of bugs, so it's recommended to use it always.\n */\nlibrary SafeMath {\n    /**\n     * @dev Returns the addition of two unsigned integers, reverting on\n     * overflow.\n     *\n     * Counterpart to Solidity's `+` operator.\n     *\n     * Requirements:\n     * - Addition cannot overflow.\n     */\n    function add(uint256 a, uint256 b) internal pure returns (uint256) {\n        uint256 c = a + b;\n        require(c >= a, \"SafeMath: addition overflow\");\n\n        return c;\n    }\n\n    /**\n     * @dev Returns the subtraction of two unsigned integers, reverting on\n     * overflow (when the result is negative).\n     *\n     * Counterpart to Solidity's `-` operator.\n     *\n     * Requirements:\n     * - Subtraction cannot overflow.\n     */\n    function sub(uint256 a, uint256 b) internal pure returns (uint256) {\n        require(b <= a, \"SafeMath: subtraction overflow\");\n        uint256 c = a - b;\n\n        return c;\n    }\n\n    /**\n     * @dev Returns the multiplication of two unsigned integers, reverting on\n     * overflow.\n     *\n     * Counterpart to Solidity's `*` operator.\n     *\n     * Requirements:\n     * - Multiplication cannot overflow.\n     */\n    function mul(uint256 a, uint256 b) internal pure returns (uint256) {\n        // Gas optimization: this is cheaper than requiring 'a' not being zero, but the\n        // benefit is lost if 'b' is also tested.\n        // See: https://github.com/OpenZeppelin/openzeppelin-solidity/pull/522\n        if (a == 0) {\n            return 0;\n        }\n\n        uint256 c = a * b;\n        require(c / a == b, \"SafeMath: multiplication overflow\");\n\n        return c;\n    }\n\n    /**\n     * @dev Returns the integer division of two unsigned integers. Reverts on\n     * division by zero. The result is rounded towards zero.\n     *\n     * Counterpart to Solidity's `/` operator. Note: this function uses a\n     * `revert` opcode (which leaves remaining gas untouched) while Solidity\n     * uses an invalid opcode to revert (consuming all remaining gas).\n     *\n     * Requirements:\n     * - The divisor cannot be zero.\n     */\n    function div(uint256 a, uint256 b) internal pure returns (uint256) {\n        // Solidity only automatically asserts when dividing by 0\n        require(b > 0, \"SafeMath: division by zero\");\n        uint256 c = a / b;\n        // assert(a == b * c + a % b); // There is no case in which this doesn't hold\n\n        return c;\n    }\n\n    /**\n     * @dev Returns the remainder of dividing two unsigned integers. (unsigned integer modulo),\n     * Reverts when dividing by zero.\n     *\n     * Counterpart to Solidity's `%` operator. This function uses a `revert`\n     * opcode (which leaves remaining gas untouched) while Solidity uses an\n     * invalid opcode to revert (consuming all remaining gas).\n     *\n     * Requirements:\n     * - The divisor cannot be zero.\n     */\n    function mod(uint256 a, uint256 b) internal pure returns (uint256) {\n        require(b != 0, \"SafeMath: modulo by zero\");\n        return a % b;\n    }\n}\n\n// File: contracts\\BasicToken.sol\n\npragma solidity ^0.5.9;\n\n\n\n\n/**\n * @title Basic token\n * @dev Basic version of StandardToken, with no allowances.\n */\ncontract BasicToken is ERC20Basic {\n  using SafeMath for uint256;\n\n  mapping(address => uint256) internal balances;\n\n  uint256 internal totalSupply_;\n\n  /**\n  * @dev Total number of tokens in existence\n  */\n  function totalSupply() public view returns (uint256) {\n    return totalSupply_;\n  }\n\n  /**\n  * @dev Transfer token for a specified address\n  * @param _to The address to transfer to.\n  * @param _value The amount to be transferred.\n  */\n  function transfer(address _to, uint256 _value) public returns (bool) {\n    require(_value <= balances[msg.sender]);\n    require(_to != address(0));\n\n    balances[msg.sender] = balances[msg.sender].sub(_value);\n    balances[_to] = balances[_to].add(_value);\n    emit Transfer(msg.sender, _to, _value);\n    return true;\n  }\n\n  /**\n  * @dev Gets the balance of the specified address.\n  * @param _owner The address to query the the balance of.\n  * @return An uint256 representing the amount owned by the passed address.\n  */\n  function balanceOf(address _owner) public view returns (uint256) {\n    return balances[_owner];\n  }\n\n}\n\n// File: contracts\\StandardToken.sol\n\npragma solidity ^0.5.9;\n\n\n/**\n * @title Standard ERC20 token\n *\n * @dev Implementation of the basic standard token.\n * https://github.com/ethereum/EIPs/issues/20\n * Based on code by FirstBlood: https://github.com/Firstbloodio/token/blob/master/smart_contract/FirstBloodToken.sol\n */\ncontract StandardToken is BasicToken {\n\n  mapping (address => mapping (address => uint256)) internal allowed;\n\n   event Approval(address indexed owner, address indexed spender, uint256 value);\n  /**\n   * @dev Transfer tokens from one address to another\n   * @param _from address The address which you want to send tokens from\n   * @param _to address The address which you want to transfer to\n   * @param _value uint256 the amount of tokens to be transferred\n   */\n  function transferFrom(\n    address _from,\n    address _to,\n    uint256 _value\n  )\n    public\n    returns (bool)\n  {\n    require(_value <= balances[_from]);\n    require(_value <= allowed[_from][msg.sender]);\n    require(_to != address(0));\n\n    balances[_from] = balances[_from].sub(_value);\n    balances[_to] = balances[_to].add(_value);\n    allowed[_from][msg.sender] = allowed[_from][msg.sender].sub(_value);\n    emit Transfer(_from, _to, _value);\n    return true;\n  }\n\n  /**\n   * @dev Approve the passed address to spend the specified amount of tokens on behalf of msg.sender.\n   * Beware that changing an allowance with this method brings the risk that someone may use both the old\n   * and the new allowance by unfortunate transaction ordering. One possible solution to mitigate this\n   * race condition is to first reduce the spender's allowance to 0 and set the desired value afterwards:\n   * https://github.com/ethereum/EIPs/issues/20#issuecomment-263524729\n   * @param _spender The address which will spend the funds.\n   * @param _value The amount of tokens to be spent.\n   */\n  function approve(address _spender, uint256 _value) public returns (bool) {\n    allowed[msg.sender][_spender] = _value;\n    emit Approval(msg.sender, _spender, _value);\n    return true;\n  }\n\n  /**\n   * @dev Function to check the amount of tokens that an owner allowed to a spender.\n   * @param _owner address The address which owns the funds.\n   * @param _spender address The address which will spend the funds.\n   * @return A uint256 specifying the amount of tokens still available for the spender.\n   */\n  function allowance(\n    address _owner,\n    address _spender\n   )\n    public\n    view\n    returns (uint256)\n  {\n    return allowed[_owner][_spender];\n  }\n\n  /**\n   * @dev Increase the amount of tokens that an owner allowed to a spender.\n   * approve should be called when allowed[_spender] == 0. To increment\n   * allowed value is better to use this function to avoid 2 calls (and wait until\n   * the first transaction is mined)\n   * From MonolithDAO Token.sol\n   * @param _spender The address which will spend the funds.\n   * @param _addedValue The amount of tokens to increase the allowance by.\n   */\n  function increaseApproval(\n    address _spender,\n    uint256 _addedValue\n  )\n    public\n    returns (bool)\n  {\n    allowed[msg.sender][_spender] = (\n      allowed[msg.sender][_spender].add(_addedValue));\n    emit Approval(msg.sender, _spender, allowed[msg.sender][_spender]);\n    return true;\n  }\n\n  /**\n   * @dev Decrease the amount of tokens that an owner allowed to a spender.\n   * approve should be called when allowed[_spender] == 0. To decrement\n   * allowed value is better to use this function to avoid 2 calls (and wait until\n   * the first transaction is mined)\n   * From MonolithDAO Token.sol\n   * @param _spender The address which will spend the funds.\n   * @param _subtractedValue The amount of tokens to decrease the allowance by.\n   */\n  function decreaseApproval(\n    address _spender,\n    uint256 _subtractedValue\n  )\n    public\n    returns (bool)\n  {\n    uint256 oldValue = allowed[msg.sender][_spender];\n    if (_subtractedValue >= oldValue) {\n      allowed[msg.sender][_spender] = 0;\n    } else {\n      allowed[msg.sender][_spender] = oldValue.sub(_subtractedValue);\n    }\n    emit Approval(msg.sender, _spender, allowed[msg.sender][_spender]);\n    return true;\n  }\n\n}\n\n// File: openzeppelin-solidity\\contracts\\ownership\\Ownable.sol\n\npragma solidity ^0.5.0;\n\n/**\n * @dev Contract module which provides a basic access control mechanism, where\n * there is an account (an owner) that can be granted exclusive access to\n * specific functions.\n *\n * This module is used through inheritance. It will make available the modifier\n * `onlyOwner`, which can be aplied to your functions to restrict their use to\n * the owner.\n */\ncontract Ownable {\n    address private _owner;\n\n    event OwnershipTransferred(address indexed previousOwner, address indexed newOwner);\n\n    /**\n     * @dev Initializes the contract setting the deployer as the initial owner.\n     */\n    constructor () internal {\n        _owner = msg.sender;\n        emit OwnershipTransferred(address(0), _owner);\n    }\n\n    /**\n     * @dev Returns the address of the current owner.\n     */\n    function owner() public view returns (address) {\n        return _owner;\n    }\n\n    /**\n     * @dev Throws if called by any account other than the owner.\n     */\n    modifier onlyOwner() {\n        require(isOwner(), \"Ownable: caller is not the owner\");\n        _;\n    }\n\n    /**\n     * @dev Returns true if the caller is the current owner.\n     */\n    function isOwner() public view returns (bool) {\n        return msg.sender == _owner;\n    }\n\n    /**\n     * @dev Leaves the contract without owner. It will not be possible to call\n     * `onlyOwner` functions anymore. Can only be called by the current owner.\n     *\n     * > Note: Renouncing ownership will leave the contract without an owner,\n     * thereby removing any functionality that is only available to the owner.\n     */\n    function renounceOwnership() public onlyOwner {\n        emit OwnershipTransferred(_owner, address(0));\n        _owner = address(0);\n    }\n\n    /**\n     * @dev Transfers ownership of the contract to a new account (`newOwner`).\n     * Can only be called by the current owner.\n     */\n    function transferOwnership(address newOwner) public onlyOwner {\n        _transferOwnership(newOwner);\n    }\n\n    /**\n     * @dev Transfers ownership of the contract to a new account (`newOwner`).\n     */\n    function _transferOwnership(address newOwner) internal {\n        require(newOwner != address(0), \"Ownable: new owner is the zero address\");\n        emit OwnershipTransferred(_owner, newOwner);\n        _owner = newOwner;\n    }\n}\n\n// File: contracts\\Pausable.sol\n\npragma solidity ^0.5.9;\n\n\n\n/**\n * @title Pausable\n * @dev Base contract which allows children to implement an emergency stop mechanism.\n */\ncontract Pausable is Ownable {\n  event Pause();\n  event Unpause();\n\n  bool public paused = false;\n\n\n  /**\n   * @dev Modifier to make a function callable only when the contract is not paused.\n   */\n  modifier whenNotPaused() {\n    require(!paused);\n    _;\n  }\n\n  /**\n   * @dev Modifier to make a function callable only when the contract is paused.\n   */\n  modifier whenPaused() {\n    require(paused);\n    _;\n  }\n\n  /**\n   * @dev called by the owner to pause, triggers stopped state\n   */\n  function pause() public onlyOwner whenNotPaused {\n    paused = true;\n    emit Pause();\n  }\n\n  /**\n   * @dev called by the owner to unpause, returns to normal state\n   */\n  function unpause() public onlyOwner whenPaused {\n    paused = false;\n    emit Unpause();\n  }\n}\n\n// File: contracts\\RozToken.sol\n\npragma solidity ^0.5.9;\n\n\n                                        \ncontract RozToken is StandardToken, Pausable {\n\n  string public name = \"ROZEUS\";\n  string public symbol = \"ROZ\";\n  uint8 public decimals = 8 ;\n  uint256 _totalSupply = 10000000000;  \n\n  bool public minted = false;\n  \n\n  // partner account lockup controll\n  struct BusinessPartner {\n    // account lockup amount\n    uint256 account_total;\n    // lockup start day\n    uint256 set_date;\n    // Payment cycle (month)\n    // ex) 1 - 1month , 3 - 3month\n    uint256 set_period;\n    // Payment number\n    // ex) 3 - 3 payments , 6 - 6 payments\n    uint256 set_num;\n    // Withdrawal quantity\n    uint256 account_withdraw;\n  }\n\n  \n  mapping (address => BusinessPartner ) m_bp;\n  BusinessPartner bp;  \n  \n  event LockupStep(address indexed target, string log, uint256 en, uint256 _t1, uint256 _t2 );\n  event Mint(address indexed to, uint256 amount);\n  event e_mintable();\n  event e_unmintable();\n  \n  modifier whenNotTeam() {\n    require(m_bp[msg.sender].account_total == 0);\n    _;\n  }\n\n  modifier whenMinted() {    \n    require(minted);\n    _;\n  }\n       \n  constructor() public {\n    totalSupply_ = _totalSupply * 10**uint(decimals);\n    \n    uint256 sale_fund = 2500000000 * 10**uint(decimals);\n    uint256 team_fund = 500000000 * 10**uint(decimals);\n    uint256 platform_fund = 4000000000 * 10**uint(decimals);\n    uint256 ecosystem_fund = 2000000000 * 10**uint(decimals);\n    uint256 bounty_fund = 1000000000 * 10**uint(decimals);\n\n    balances[0x3B71AB34A2d5e28B5E3E2B6248D4D45D12f664CC] = sale_fund;\n    balances[0x297f0a58e006A121C7af4F7B4Dd8a98383DC402C] = team_fund;\n    balances[0x3dd7Ad80806F59dD62dfFd51c4D078c4AdbB048f] = platform_fund;\n    balances[0x93f77A45933A22FA4bc43A9ceE3D707d2E537E2a] = ecosystem_fund;\n    balances[0x16C5EB21D3441eF11815CFbF2B34861264F87924] = bounty_fund;\n    \n    emit Transfer(address(0), 0x3B71AB34A2d5e28B5E3E2B6248D4D45D12f664CC, sale_fund);\n    emit Transfer(address(0), 0x297f0a58e006A121C7af4F7B4Dd8a98383DC402C, team_fund);\n    emit Transfer(address(0), 0x3dd7Ad80806F59dD62dfFd51c4D078c4AdbB048f, platform_fund);\n    emit Transfer(address(0), 0x93f77A45933A22FA4bc43A9ceE3D707d2E537E2a, ecosystem_fund);\n    emit Transfer(address(0), 0x16C5EB21D3441eF11815CFbF2B34861264F87924, bounty_fund);\n  }\n  \n   // lockup setting function \t\n   // ex) arg1 : lockup address - 0x16C5EB21D3441eF11815CFbF2B34861264F87924\n   //     arg2 : lockup token amount - 10000000000\n   //     arg3 : lockup start day(unix time) - 1557205425( May 7 )\n   //     arg4 : Payment cycle - 3 (per 3 month)\n   //     arg5 : Payment number - 4 ( 4 times)\n   //     arg6 : Withdrawal amount - 0 (token tranfer amount sum )\n   //    * 100 tokens are divided into 4 times in 3-month cycle so that they can be withdrawn. \n  function setBusinessPartner(address _addr, uint256 _acc_tot, uint256 _date, uint256 _period, uint256 _num, uint256 _acc_with ) public onlyOwner returns (bool) {    \n    require(m_bp[_addr].account_total == 0 ) ;\n    bp = BusinessPartner(_acc_tot, _date , _period, _num, _acc_with);    \n    m_bp[_addr] = bp;\n    return true;    \n  }  \n  \n  function getBusinessPartner(address _addr ) view public returns (uint256,uint256,uint256,uint256,uint256) {    \n    return (m_bp[_addr].account_total,m_bp[_addr].set_date, m_bp[_addr].set_period, m_bp[_addr].set_num , m_bp[_addr].account_withdraw);\n  }\n\n  function transfer( address to, uint256 value ) public whenNotPaused returns (bool)  {\n    uint256 current_step = 0;\n    uint256 enable_balance;\n    if(m_bp[msg.sender].account_total > 0) {\n      uint256 setday = m_bp[msg.sender].set_period.mul(30 days);\n      uint256 elapsed_time = now.sub(m_bp[msg.sender].set_date);      \n      current_step = elapsed_time.div(setday);\n\n      uint256 account_total_mod = m_bp[msg.sender].account_total % m_bp[msg.sender].set_num;\n      uint256 account_total_sub = m_bp[msg.sender].account_total;\n      if(account_total_mod>0) account_total_sub = m_bp[msg.sender].account_total.sub(account_total_mod);\n      \n      enable_balance = (account_total_sub.div(m_bp[msg.sender].set_num)).mul(current_step).add(account_total_mod);\n      emit LockupStep(msg.sender,\": enable_balance!!!.\" , enable_balance , current_step , account_total_sub );  \n    }\n    require(m_bp[msg.sender].account_total == 0 || (enable_balance >= value && enable_balance.sub(m_bp[msg.sender].account_withdraw) >= value) ) ;    \n    require(m_bp[msg.sender].account_withdraw.add(value) > m_bp[msg.sender].account_withdraw);  \n    if(super.transfer(to, value)) {\n      if(m_bp[msg.sender].account_total > 0) m_bp[msg.sender].account_withdraw = m_bp[msg.sender].account_withdraw.add(value) ;\n      return true;\n    } else {\n      return false;\n    }\n  }\n\n  function transferFrom(address from, address to, uint256 value ) public whenNotPaused returns (bool) {\n    return super.transferFrom(from, to, value);\n  }\n\n  function approve(address spender, uint256 value ) public whenNotTeam whenNotPaused returns (bool) {\n    return super.approve(spender, value);\n  }\n   \n  function increaseApproval( address _spender, uint256 _addedValue ) public whenNotTeam whenNotPaused returns (bool)  {    \n    return super.increaseApproval(_spender, _addedValue);\n  }\n\n  function decreaseApproval( address _spender, uint256 _subtractedValue ) public whenNotTeam whenNotPaused returns (bool) {    \n    return super.decreaseApproval( _spender, _subtractedValue );\n  }\n  \n  function mintable() public onlyOwner {\n    minted = true;\n    emit e_mintable(); \n  }\n\n  function unmintable() public onlyOwner {\n    minted = false;\n    emit e_unmintable();\n  }\n  \n  function mint( address _to, uint256 _amount ) public whenNotPaused whenMinted onlyOwner returns (bool) {\n    require(_to > address(0));\n    totalSupply_ = totalSupply_.add(_amount);\n    balances[_to] = balances[_to].add(_amount);\n    \n    emit Mint(_to, _amount);\n    emit Transfer(address(0), _to, _amount);\n    return true;\n  }\n}\n",
  "sourcePath": "C:/Users/bflysoft/Documents/GitHub/ROZEUS/ROZUES/contracts/RozToken-flattener.sol",
  "compiler": {
    "name": "solc",
    "version": "0.5.9+commit.e560f70d.Emscripten.clang"
  },
  "schemaVersion": "3.0.10",
  "updatedAt": "2019-06-17T05:16:04.850Z",
  "devdoc": {
    "details": "Base contract which allows children to implement an emergency stop mechanism.",
    "methods": {
      "isOwner()": {
        "details": "Returns true if the caller is the current owner."
      },
      "owner()": {
        "details": "Returns the address of the current owner."
      },
      "pause()": {
        "details": "called by the owner to pause, triggers stopped state"
      },
      "renounceOwnership()": {
        "details": "Leaves the contract without owner. It will not be possible to call `onlyOwner` functions anymore. Can only be called by the current owner.     * > Note: Renouncing ownership will leave the contract without an owner, thereby removing any functionality that is only available to the owner."
      },
      "transferOwnership(address)": {
        "details": "Transfers ownership of the contract to a new account (`newOwner`). Can only be called by the current owner."
      },
      "unpause()": {
        "details": "called by the owner to unpause, returns to normal state"
      }
    },
    "title": "Pausable"
  },
  "userdoc": {
    "methods": {}
  }
}