{
  "contractName": "RozToken",
  "abi": [
    {
      "constant": true,
      "inputs": [],
      "name": "name",
      "outputs": [
        {
          "name": "",
          "type": "string"
        }
      ],
      "payable": false,
      "stateMutability": "view",
      "type": "function"
    },
    {
      "constant": true,
      "inputs": [],
      "name": "totalSupply",
      "outputs": [
        {
          "name": "",
          "type": "uint256"
        }
      ],
      "payable": false,
      "stateMutability": "view",
      "type": "function"
    },
    {
      "constant": true,
      "inputs": [],
      "name": "decimals",
      "outputs": [
        {
          "name": "",
          "type": "uint8"
        }
      ],
      "payable": false,
      "stateMutability": "view",
      "type": "function"
    },
    {
      "constant": false,
      "inputs": [],
      "name": "unpause",
      "outputs": [],
      "payable": false,
      "stateMutability": "nonpayable",
      "type": "function"
    },
    {
      "constant": true,
      "inputs": [],
      "name": "minted",
      "outputs": [
        {
          "name": "",
          "type": "bool"
        }
      ],
      "payable": false,
      "stateMutability": "view",
      "type": "function"
    },
    {
      "constant": true,
      "inputs": [],
      "name": "paused",
      "outputs": [
        {
          "name": "",
          "type": "bool"
        }
      ],
      "payable": false,
      "stateMutability": "view",
      "type": "function"
    },
    {
      "constant": true,
      "inputs": [
        {
          "name": "_owner",
          "type": "address"
        }
      ],
      "name": "balanceOf",
      "outputs": [
        {
          "name": "",
          "type": "uint256"
        }
      ],
      "payable": false,
      "stateMutability": "view",
      "type": "function"
    },
    {
      "constant": false,
      "inputs": [],
      "name": "renounceOwnership",
      "outputs": [],
      "payable": false,
      "stateMutability": "nonpayable",
      "type": "function"
    },
    {
      "constant": false,
      "inputs": [],
      "name": "pause",
      "outputs": [],
      "payable": false,
      "stateMutability": "nonpayable",
      "type": "function"
    },
    {
      "constant": true,
      "inputs": [],
      "name": "owner",
      "outputs": [
        {
          "name": "",
          "type": "address"
        }
      ],
      "payable": false,
      "stateMutability": "view",
      "type": "function"
    },
    {
      "constant": true,
      "inputs": [],
      "name": "isOwner",
      "outputs": [
        {
          "name": "",
          "type": "bool"
        }
      ],
      "payable": false,
      "stateMutability": "view",
      "type": "function"
    },
    {
      "constant": true,
      "inputs": [],
      "name": "symbol",
      "outputs": [
        {
          "name": "",
          "type": "string"
        }
      ],
      "payable": false,
      "stateMutability": "view",
      "type": "function"
    },
    {
      "constant": true,
      "inputs": [
        {
          "name": "_owner",
          "type": "address"
        },
        {
          "name": "_spender",
          "type": "address"
        }
      ],
      "name": "allowance",
      "outputs": [
        {
          "name": "",
          "type": "uint256"
        }
      ],
      "payable": false,
      "stateMutability": "view",
      "type": "function"
    },
    {
      "constant": false,
      "inputs": [
        {
          "name": "newOwner",
          "type": "address"
        }
      ],
      "name": "transferOwnership",
      "outputs": [],
      "payable": false,
      "stateMutability": "nonpayable",
      "type": "function"
    },
    {
      "inputs": [],
      "payable": false,
      "stateMutability": "nonpayable",
      "type": "constructor"
    },
    {
      "anonymous": false,
      "inputs": [
        {
          "indexed": true,
          "name": "target",
          "type": "address"
        },
        {
          "indexed": false,
          "name": "log",
          "type": "string"
        },
        {
          "indexed": false,
          "name": "en",
          "type": "uint256"
        },
        {
          "indexed": false,
          "name": "_t1",
          "type": "uint256"
        },
        {
          "indexed": false,
          "name": "_t2",
          "type": "uint256"
        }
      ],
      "name": "LockupStep",
      "type": "event"
    },
    {
      "anonymous": false,
      "inputs": [
        {
          "indexed": true,
          "name": "to",
          "type": "address"
        },
        {
          "indexed": false,
          "name": "amount",
          "type": "uint256"
        }
      ],
      "name": "Mint",
      "type": "event"
    },
    {
      "anonymous": false,
      "inputs": [],
      "name": "e_mintable",
      "type": "event"
    },
    {
      "anonymous": false,
      "inputs": [],
      "name": "e_unmintable",
      "type": "event"
    },
    {
      "anonymous": false,
      "inputs": [],
      "name": "Pause",
      "type": "event"
    },
    {
      "anonymous": false,
      "inputs": [],
      "name": "Unpause",
      "type": "event"
    },
    {
      "anonymous": false,
      "inputs": [
        {
          "indexed": true,
          "name": "previousOwner",
          "type": "address"
        },
        {
          "indexed": true,
          "name": "newOwner",
          "type": "address"
        }
      ],
      "name": "OwnershipTransferred",
      "type": "event"
    },
    {
      "anonymous": false,
      "inputs": [
        {
          "indexed": true,
          "name": "owner",
          "type": "address"
        },
        {
          "indexed": true,
          "name": "spender",
          "type": "address"
        },
        {
          "indexed": false,
          "name": "value",
          "type": "uint256"
        }
      ],
      "name": "Approval",
      "type": "event"
    },
    {
      "anonymous": false,
      "inputs": [
        {
          "indexed": true,
          "name": "from",
          "type": "address"
        },
        {
          "indexed": true,
          "name": "to",
          "type": "address"
        },
        {
          "indexed": false,
          "name": "value",
          "type": "uint256"
        }
      ],
      "name": "Transfer",
      "type": "event"
    },
    {
      "constant": false,
      "inputs": [
        {
          "name": "_addr",
          "type": "address"
        },
        {
          "name": "_acc_tot",
          "type": "uint256"
        },
        {
          "name": "_date",
          "type": "uint256"
        },
        {
          "name": "_period",
          "type": "uint256"
        },
        {
          "name": "_num",
          "type": "uint256"
        },
        {
          "name": "_acc_with",
          "type": "uint256"
        }
      ],
      "name": "setBusinessPartner",
      "outputs": [
        {
          "name": "",
          "type": "bool"
        }
      ],
      "payable": false,
      "stateMutability": "nonpayable",
      "type": "function"
    },
    {
      "constant": true,
      "inputs": [
        {
          "name": "_addr",
          "type": "address"
        }
      ],
      "name": "getBusinessPartner",
      "outputs": [
        {
          "name": "",
          "type": "uint256"
        },
        {
          "name": "",
          "type": "uint256"
        },
        {
          "name": "",
          "type": "uint256"
        },
        {
          "name": "",
          "type": "uint256"
        },
        {
          "name": "",
          "type": "uint256"
        }
      ],
      "payable": false,
      "stateMutability": "view",
      "type": "function"
    },
    {
      "constant": false,
      "inputs": [
        {
          "name": "to",
          "type": "address"
        },
        {
          "name": "value",
          "type": "uint256"
        }
      ],
      "name": "transfer",
      "outputs": [
        {
          "name": "",
          "type": "bool"
        }
      ],
      "payable": false,
      "stateMutability": "nonpayable",
      "type": "function"
    },
    {
      "constant": false,
      "inputs": [
        {
          "name": "from",
          "type": "address"
        },
        {
          "name": "to",
          "type": "address"
        },
        {
          "name": "value",
          "type": "uint256"
        }
      ],
      "name": "transferFrom",
      "outputs": [
        {
          "name": "",
          "type": "bool"
        }
      ],
      "payable": false,
      "stateMutability": "nonpayable",
      "type": "function"
    },
    {
      "constant": false,
      "inputs": [
        {
          "name": "spender",
          "type": "address"
        },
        {
          "name": "value",
          "type": "uint256"
        }
      ],
      "name": "approve",
      "outputs": [
        {
          "name": "",
          "type": "bool"
        }
      ],
      "payable": false,
      "stateMutability": "nonpayable",
      "type": "function"
    },
    {
      "constant": false,
      "inputs": [
        {
          "name": "_spender",
          "type": "address"
        },
        {
          "name": "_addedValue",
          "type": "uint256"
        }
      ],
      "name": "increaseApproval",
      "outputs": [
        {
          "name": "",
          "type": "bool"
        }
      ],
      "payable": false,
      "stateMutability": "nonpayable",
      "type": "function"
    },
    {
      "constant": false,
      "inputs": [
        {
          "name": "_spender",
          "type": "address"
        },
        {
          "name": "_subtractedValue",
          "type": "uint256"
        }
      ],
      "name": "decreaseApproval",
      "outputs": [
        {
          "name": "",
          "type": "bool"
        }
      ],
      "payable": false,
      "stateMutability": "nonpayable",
      "type": "function"
    },
    {
      "constant": false,
      "inputs": [],
      "name": "mintable",
      "outputs": [],
      "payable": false,
      "stateMutability": "nonpayable",
      "type": "function"
    },
    {
      "constant": false,
      "inputs": [],
      "name": "unmintable",
      "outputs": [],
      "payable": false,
      "stateMutability": "nonpayable",
      "type": "function"
    },
    {
      "constant": false,
      "inputs": [
        {
          "name": "_to",
          "type": "address"
        },
        {
          "name": "_amount",
          "type": "uint256"
        }
      ],
      "name": "mint",
      "outputs": [
        {
          "name": "",
          "type": "bool"
        }
      ],
      "payable": false,
      "stateMutability": "nonpayable",
      "type": "function"
    }
  ],
  "bytecode": "0x60806040526000600360146101000a81548160ff0219169083151502179055506040518060400160405280600681526020017f524f5a4555530000000000000000000000000000000000000000000000000000815250600490805190602001906200006c929190620006a7565b506040518060400160405280600381526020017f524f5a000000000000000000000000000000000000000000000000000000000081525060059080519060200190620000ba929190620006a7565b506008600660006101000a81548160ff021916908360ff1602179055506402540be4006007556000600860006101000a81548160ff0219169083151502179055503480156200010857600080fd5b5033600360006101000a81548173ffffffffffffffffffffffffffffffffffffffff021916908373ffffffffffffffffffffffffffffffffffffffff160217905550600360009054906101000a900473ffffffffffffffffffffffffffffffffffffffff1673ffffffffffffffffffffffffffffffffffffffff16600073ffffffffffffffffffffffffffffffffffffffff167f8be0079c531659141344cd1fd0a4f28419497f9722a3daafe3b4186f6b6457e060405160405180910390a3600660009054906101000a900460ff1660ff16600a0a600754026001819055506000600660009054906101000a900460ff1660ff16600a0a639502f9000290506000600660009054906101000a900460ff1660ff16600a0a631dcd65000290506000600660009054906101000a900460ff1660ff16600a0a63ee6b28000290506000600660009054906101000a900460ff1660ff16600a0a63773594000290506000600660009054906101000a900460ff1660ff16600a0a633b9aca0002905084600080733b71ab34a2d5e28b5e3e2b6248d4d45d12f664cc73ffffffffffffffffffffffffffffffffffffffff1673ffffffffffffffffffffffffffffffffffffffff168152602001908152602001600020819055508360008073297f0a58e006a121c7af4f7b4dd8a98383dc402c73ffffffffffffffffffffffffffffffffffffffff1673ffffffffffffffffffffffffffffffffffffffff1681526020019081526020016000208190555082600080733dd7ad80806f59dd62dffd51c4d078c4adbb048f73ffffffffffffffffffffffffffffffffffffffff1673ffffffffffffffffffffffffffffffffffffffff16815260200190815260200160002081905550816000807393f77a45933a22fa4bc43a9cee3d707d2e537e2a73ffffffffffffffffffffffffffffffffffffffff1673ffffffffffffffffffffffffffffffffffffffff16815260200190815260200160002081905550806000807316c5eb21d3441ef11815cfbf2b34861264f8792473ffffffffffffffffffffffffffffffffffffffff1673ffffffffffffffffffffffffffffffffffffffff16815260200190815260200160002081905550733b71ab34a2d5e28b5e3e2b6248d4d45d12f664cc73ffffffffffffffffffffffffffffffffffffffff16600073ffffffffffffffffffffffffffffffffffffffff167fddf252ad1be2c89b69c2b068fc378daa952ba7f163c4a11628f55a4df523b3ef876040518082815260200191505060405180910390a373297f0a58e006a121c7af4f7b4dd8a98383dc402c73ffffffffffffffffffffffffffffffffffffffff16600073ffffffffffffffffffffffffffffffffffffffff167fddf252ad1be2c89b69c2b068fc378daa952ba7f163c4a11628f55a4df523b3ef866040518082815260200191505060405180910390a3733dd7ad80806f59dd62dffd51c4d078c4adbb048f73ffffffffffffffffffffffffffffffffffffffff16600073ffffffffffffffffffffffffffffffffffffffff167fddf252ad1be2c89b69c2b068fc378daa952ba7f163c4a11628f55a4df523b3ef856040518082815260200191505060405180910390a37393f77a45933a22fa4bc43a9cee3d707d2e537e2a73ffffffffffffffffffffffffffffffffffffffff16600073ffffffffffffffffffffffffffffffffffffffff167fddf252ad1be2c89b69c2b068fc378daa952ba7f163c4a11628f55a4df523b3ef846040518082815260200191505060405180910390a37316c5eb21d3441ef11815cfbf2b34861264f8792473ffffffffffffffffffffffffffffffffffffffff16600073ffffffffffffffffffffffffffffffffffffffff167fddf252ad1be2c89b69c2b068fc378daa952ba7f163c4a11628f55a4df523b3ef836040518082815260200191505060405180910390a3505050505062000756565b828054600181600116156101000203166002900490600052602060002090601f016020900481019282601f10620006ea57805160ff19168380011785556200071b565b828001600101855582156200071b579182015b828111156200071a578251825591602001919060010190620006fd565b5b5090506200072a91906200072e565b5090565b6200075391905b808211156200074f57600081600090555060010162000735565b5090565b90565b612c2080620007666000396000f3fe608060405234801561001057600080fd5b50600436106101585760003560e01c806370a08231116100c357806395d89b411161007c57806395d89b4114610588578063a9059cbb1461060b578063d73dd62314610671578063dd62ed3e146106d7578063f2fde38b1461074f578063fc38aef11461079357610158565b806370a08231146104a6578063715018a6146104fe57806378a3f3b7146105085780638456cb59146105125780638da5cb5b1461051c5780638f32d59b1461056657610158565b806340c10f191161011557806340c10f19146103185780634bf365df1461037e5780634f02c420146103885780635c975abb146103aa57806364150efd146103cc578063661884631461044057610158565b806306fdde031461015d578063095ea7b3146101e057806318160ddd1461024657806323b872dd14610264578063313ce567146102ea5780633f4ba83a1461030e575b600080fd5b610165610821565b6040518080602001828103825283818151815260200191508051906020019080838360005b838110156101a557808201518184015260208101905061018a565b50505050905090810190601f1680156101d25780820380516001836020036101000a031916815260200191505b509250505060405180910390f35b61022c600480360360408110156101f657600080fd5b81019080803573ffffffffffffffffffffffffffffffffffffffff169060200190929190803590602001909291905050506108bf565b604051808215151515815260200191505060405180910390f35b61024e61093b565b6040518082815260200191505060405180910390f35b6102d06004803603606081101561027a57600080fd5b81019080803573ffffffffffffffffffffffffffffffffffffffff169060200190929190803573ffffffffffffffffffffffffffffffffffffffff16906020019092919080359060200190929190505050610945565b604051808215151515815260200191505060405180910390f35b6102f2610975565b604051808260ff1660ff16815260200191505060405180910390f35b610316610988565b005b6103646004803603604081101561032e57600080fd5b81019080803573ffffffffffffffffffffffffffffffffffffffff16906020019092919080359060200190929190505050610a64565b604051808215151515815260200191505060405180910390f35b610386610cb8565b005b610390610d7b565b604051808215151515815260200191505060405180910390f35b6103b2610d8e565b604051808215151515815260200191505060405180910390f35b61040e600480360360208110156103e257600080fd5b81019080803573ffffffffffffffffffffffffffffffffffffffff169060200190929190505050610da1565b604051808681526020018581526020018481526020018381526020018281526020019550505050505060405180910390f35b61048c6004803603604081101561045657600080fd5b81019080803573ffffffffffffffffffffffffffffffffffffffff16906020019092919080359060200190929190505050610f0b565b604051808215151515815260200191505060405180910390f35b6104e8600480360360208110156104bc57600080fd5b81019080803573ffffffffffffffffffffffffffffffffffffffff169060200190929190505050610f87565b6040518082815260200191505060405180910390f35b610506610fcf565b005b61051061110a565b005b61051a6111cd565b005b6105246112aa565b604051808273ffffffffffffffffffffffffffffffffffffffff1673ffffffffffffffffffffffffffffffffffffffff16815260200191505060405180910390f35b61056e6112d4565b604051808215151515815260200191505060405180910390f35b61059061132c565b6040518080602001828103825283818151815260200191508051906020019080838360005b838110156105d05780820151818401526020810190506105b5565b50505050905090810190601f1680156105fd5780820380516001836020036101000a031916815260200191505b509250505060405180910390f35b6106576004803603604081101561062157600080fd5b81019080803573ffffffffffffffffffffffffffffffffffffffff169060200190929190803590602001909291905050506113ca565b604051808215151515815260200191505060405180910390f35b6106bd6004803603604081101561068757600080fd5b81019080803573ffffffffffffffffffffffffffffffffffffffff169060200190929190803590602001909291905050506119b3565b604051808215151515815260200191505060405180910390f35b610739600480360360408110156106ed57600080fd5b81019080803573ffffffffffffffffffffffffffffffffffffffff169060200190929190803573ffffffffffffffffffffffffffffffffffffffff169060200190929190505050611a2f565b6040518082815260200191505060405180910390f35b6107916004803603602081101561076557600080fd5b81019080803573ffffffffffffffffffffffffffffffffffffffff169060200190929190505050611ab6565b005b610807600480360360c08110156107a957600080fd5b81019080803573ffffffffffffffffffffffffffffffffffffffff1690602001909291908035906020019092919080359060200190929190803590602001909291908035906020019092919080359060200190929190505050611b3c565b604051808215151515815260200191505060405180910390f35b60048054600181600116156101000203166002900480601f0160208091040260200160405190810160405280929190818152602001828054600181600116156101000203166002900480156108b75780601f1061088c576101008083540402835291602001916108b7565b820191906000526020600020905b81548152906001019060200180831161089a57829003601f168201915b505050505081565b600080600960003373ffffffffffffffffffffffffffffffffffffffff1673ffffffffffffffffffffffffffffffffffffffff168152602001908152602001600020600001541461090f57600080fd5b600360149054906101000a900460ff161561092957600080fd5b6109338383611ce9565b905092915050565b6000600154905090565b6000600360149054906101000a900460ff161561096157600080fd5b61096c848484611ddb565b90509392505050565b600660009054906101000a900460ff1681565b6109906112d4565b610a02576040517f08c379a00000000000000000000000000000000000000000000000000000000081526004018080602001828103825260208152602001807f4f776e61626c653a2063616c6c6572206973206e6f7420746865206f776e657281525060200191505060405180910390fd5b600360149054906101000a900460ff16610a1b57600080fd5b6000600360146101000a81548160ff0219169083151502179055507f7805862f689e2f13df9f062ff482ad3ad112aca9e0847911ed832e158c525b3360405160405180910390a1565b6000600360149054906101000a900460ff1615610a8057600080fd5b600860009054906101000a900460ff16610a9957600080fd5b610aa16112d4565b610b13576040517f08c379a00000000000000000000000000000000000000000000000000000000081526004018080602001828103825260208152602001807f4f776e61626c653a2063616c6c6572206973206e6f7420746865206f776e657281525060200191505060405180910390fd5b600073ffffffffffffffffffffffffffffffffffffffff168373ffffffffffffffffffffffffffffffffffffffff1611610b4c57600080fd5b610b618260015461219090919063ffffffff16565b600181905550610bb8826000808673ffffffffffffffffffffffffffffffffffffffff1673ffffffffffffffffffffffffffffffffffffffff1681526020019081526020016000205461219090919063ffffffff16565b6000808573ffffffffffffffffffffffffffffffffffffffff1673ffffffffffffffffffffffffffffffffffffffff168152602001908152602001600020819055508273ffffffffffffffffffffffffffffffffffffffff167f0f6798a560793a54c3bcfe86a93cde1e73087d944c0ea20544137d4121396885836040518082815260200191505060405180910390a28273ffffffffffffffffffffffffffffffffffffffff16600073ffffffffffffffffffffffffffffffffffffffff167fddf252ad1be2c89b69c2b068fc378daa952ba7f163c4a11628f55a4df523b3ef846040518082815260200191505060405180910390a36001905092915050565b610cc06112d4565b610d32576040517f08c379a00000000000000000000000000000000000000000000000000000000081526004018080602001828103825260208152602001807f4f776e61626c653a2063616c6c6572206973206e6f7420746865206f776e657281525060200191505060405180910390fd5b6001600860006101000a81548160ff0219169083151502179055507f6b34596c11f7e9141719fbb09ccbca01745f1cb6883b26135f0daaf48ff294db60405160405180910390a1565b600860009054906101000a900460ff1681565b600360149054906101000a900460ff1681565b6000806000806000600960008773ffffffffffffffffffffffffffffffffffffffff1673ffffffffffffffffffffffffffffffffffffffff16815260200190815260200160002060000154600960008873ffffffffffffffffffffffffffffffffffffffff1673ffffffffffffffffffffffffffffffffffffffff16815260200190815260200160002060010154600960008973ffffffffffffffffffffffffffffffffffffffff1673ffffffffffffffffffffffffffffffffffffffff16815260200190815260200160002060020154600960008a73ffffffffffffffffffffffffffffffffffffffff1673ffffffffffffffffffffffffffffffffffffffff16815260200190815260200160002060030154600960008b73ffffffffffffffffffffffffffffffffffffffff1673ffffffffffffffffffffffffffffffffffffffff168152602001908152602001600020600401549450945094509450945091939590929450565b600080600960003373ffffffffffffffffffffffffffffffffffffffff1673ffffffffffffffffffffffffffffffffffffffff1681526020019081526020016000206000015414610f5b57600080fd5b600360149054906101000a900460ff1615610f7557600080fd5b610f7f8383612218565b905092915050565b60008060008373ffffffffffffffffffffffffffffffffffffffff1673ffffffffffffffffffffffffffffffffffffffff168152602001908152602001600020549050919050565b610fd76112d4565b611049576040517f08c379a00000000000000000000000000000000000000000000000000000000081526004018080602001828103825260208152602001807f4f776e61626c653a2063616c6c6572206973206e6f7420746865206f776e657281525060200191505060405180910390fd5b600073ffffffffffffffffffffffffffffffffffffffff16600360009054906101000a900473ffffffffffffffffffffffffffffffffffffffff1673ffffffffffffffffffffffffffffffffffffffff167f8be0079c531659141344cd1fd0a4f28419497f9722a3daafe3b4186f6b6457e060405160405180910390a36000600360006101000a81548173ffffffffffffffffffffffffffffffffffffffff021916908373ffffffffffffffffffffffffffffffffffffffff160217905550565b6111126112d4565b611184576040517f08c379a00000000000000000000000000000000000000000000000000000000081526004018080602001828103825260208152602001807f4f776e61626c653a2063616c6c6572206973206e6f7420746865206f776e657281525060200191505060405180910390fd5b6000600860006101000a81548160ff0219169083151502179055507fcc32cf62ac8fa67e1adfa647ad26e174bf8d80fbbeb744d317da0145e66acfcb60405160405180910390a1565b6111d56112d4565b611247576040517f08c379a00000000000000000000000000000000000000000000000000000000081526004018080602001828103825260208152602001807f4f776e61626c653a2063616c6c6572206973206e6f7420746865206f776e657281525060200191505060405180910390fd5b600360149054906101000a900460ff161561126157600080fd5b6001600360146101000a81548160ff0219169083151502179055507f6985a02210a168e66602d3235cb6db0e70f92b3ba4d376a33c0f3d9434bff62560405160405180910390a1565b6000600360009054906101000a900473ffffffffffffffffffffffffffffffffffffffff16905090565b6000600360009054906101000a900473ffffffffffffffffffffffffffffffffffffffff1673ffffffffffffffffffffffffffffffffffffffff163373ffffffffffffffffffffffffffffffffffffffff1614905090565b60058054600181600116156101000203166002900480601f0160208091040260200160405190810160405280929190818152602001828054600181600116156101000203166002900480156113c25780601f10611397576101008083540402835291602001916113c2565b820191906000526020600020905b8154815290600101906020018083116113a557829003601f168201915b505050505081565b6000600360149054906101000a900460ff16156113e657600080fd5b6000809050600080600960003373ffffffffffffffffffffffffffffffffffffffff1673ffffffffffffffffffffffffffffffffffffffff16815260200190815260200160002060000154111561174957600061149162278d00600960003373ffffffffffffffffffffffffffffffffffffffff1673ffffffffffffffffffffffffffffffffffffffff168152602001908152602001600020600201546124a890919063ffffffff16565b905060006114ea600960003373ffffffffffffffffffffffffffffffffffffffff1673ffffffffffffffffffffffffffffffffffffffff168152602001908152602001600020600101544261252e90919063ffffffff16565b90508181816114f557fe5b0493506000600960003373ffffffffffffffffffffffffffffffffffffffff1673ffffffffffffffffffffffffffffffffffffffff16815260200190815260200160002060030154600960003373ffffffffffffffffffffffffffffffffffffffff1673ffffffffffffffffffffffffffffffffffffffff168152602001908152602001600020600001548161158757fe5b0690506000600960003373ffffffffffffffffffffffffffffffffffffffff1673ffffffffffffffffffffffffffffffffffffffff16815260200190815260200160002060000154905060008211156116325761162f82600960003373ffffffffffffffffffffffffffffffffffffffff1673ffffffffffffffffffffffffffffffffffffffff1681526020019081526020016000206000015461252e90919063ffffffff16565b90505b6116ab8261169d8861168f600960003373ffffffffffffffffffffffffffffffffffffffff1673ffffffffffffffffffffffffffffffffffffffff16815260200190815260200160002060030154866125b790919063ffffffff16565b6124a890919063ffffffff16565b61219090919063ffffffff16565b94503373ffffffffffffffffffffffffffffffffffffffff167f11874a32246694f1a83d9e102b6675cb56567a5635db3f4134f16c31b63ce8568688846040518080602001858152602001848152602001838152602001828103825260148152602001807f3a20656e61626c655f62616c616e63652121212e00000000000000000000000081525060200194505050505060405180910390a2505050505b6000600960003373ffffffffffffffffffffffffffffffffffffffff1673ffffffffffffffffffffffffffffffffffffffff1681526020019081526020016000206000015414806117fa57508381101580156117f95750836117f6600960003373ffffffffffffffffffffffffffffffffffffffff1673ffffffffffffffffffffffffffffffffffffffff168152602001908152602001600020600401548361252e90919063ffffffff16565b10155b5b61180357600080fd5b600960003373ffffffffffffffffffffffffffffffffffffffff1673ffffffffffffffffffffffffffffffffffffffff1681526020019081526020016000206004015461189b85600960003373ffffffffffffffffffffffffffffffffffffffff1673ffffffffffffffffffffffffffffffffffffffff1681526020019081526020016000206004015461219090919063ffffffff16565b116118a557600080fd5b6118af8585612646565b156119a6576000600960003373ffffffffffffffffffffffffffffffffffffffff1673ffffffffffffffffffffffffffffffffffffffff16815260200190815260200160002060000154111561199b5761195484600960003373ffffffffffffffffffffffffffffffffffffffff1673ffffffffffffffffffffffffffffffffffffffff1681526020019081526020016000206004015461219090919063ffffffff16565b600960003373ffffffffffffffffffffffffffffffffffffffff1673ffffffffffffffffffffffffffffffffffffffff168152602001908152602001600020600401819055505b6001925050506119ad565b6000925050505b92915050565b600080600960003373ffffffffffffffffffffffffffffffffffffffff1673ffffffffffffffffffffffffffffffffffffffff1681526020019081526020016000206000015414611a0357600080fd5b600360149054906101000a900460ff1615611a1d57600080fd5b611a278383612862565b905092915050565b6000600260008473ffffffffffffffffffffffffffffffffffffffff1673ffffffffffffffffffffffffffffffffffffffff16815260200190815260200160002060008373ffffffffffffffffffffffffffffffffffffffff1673ffffffffffffffffffffffffffffffffffffffff16815260200190815260200160002054905092915050565b611abe6112d4565b611b30576040517f08c379a00000000000000000000000000000000000000000000000000000000081526004018080602001828103825260208152602001807f4f776e61626c653a2063616c6c6572206973206e6f7420746865206f776e657281525060200191505060405180910390fd5b611b3981612a5e565b50565b6000611b466112d4565b611bb8576040517f08c379a00000000000000000000000000000000000000000000000000000000081526004018080602001828103825260208152602001807f4f776e61626c653a2063616c6c6572206973206e6f7420746865206f776e657281525060200191505060405180910390fd5b6000600960008973ffffffffffffffffffffffffffffffffffffffff1673ffffffffffffffffffffffffffffffffffffffff1681526020019081526020016000206000015414611c0757600080fd5b6040518060a0016040528087815260200186815260200185815260200184815260200183815250600a6000820151816000015560208201518160010155604082015181600201556060820151816003015560808201518160040155905050600a600960008973ffffffffffffffffffffffffffffffffffffffff1673ffffffffffffffffffffffffffffffffffffffff1681526020019081526020016000206000820154816000015560018201548160010155600282015481600201556003820154816003015560048201548160040155905050600190509695505050505050565b600081600260003373ffffffffffffffffffffffffffffffffffffffff1673ffffffffffffffffffffffffffffffffffffffff16815260200190815260200160002060008573ffffffffffffffffffffffffffffffffffffffff1673ffffffffffffffffffffffffffffffffffffffff168152602001908152602001600020819055508273ffffffffffffffffffffffffffffffffffffffff163373ffffffffffffffffffffffffffffffffffffffff167f8c5be1e5ebec7d5bd14f71427d1e84f3dd0314c0f7b2291e5b200ac8c7c3b925846040518082815260200191505060405180910390a36001905092915050565b60008060008573ffffffffffffffffffffffffffffffffffffffff1673ffffffffffffffffffffffffffffffffffffffff16815260200190815260200160002054821115611e2857600080fd5b600260008573ffffffffffffffffffffffffffffffffffffffff1673ffffffffffffffffffffffffffffffffffffffff16815260200190815260200160002060003373ffffffffffffffffffffffffffffffffffffffff1673ffffffffffffffffffffffffffffffffffffffff16815260200190815260200160002054821115611eb157600080fd5b600073ffffffffffffffffffffffffffffffffffffffff168373ffffffffffffffffffffffffffffffffffffffff161415611eeb57600080fd5b611f3c826000808773ffffffffffffffffffffffffffffffffffffffff1673ffffffffffffffffffffffffffffffffffffffff1681526020019081526020016000205461252e90919063ffffffff16565b6000808673ffffffffffffffffffffffffffffffffffffffff1673ffffffffffffffffffffffffffffffffffffffff16815260200190815260200160002081905550611fcf826000808673ffffffffffffffffffffffffffffffffffffffff1673ffffffffffffffffffffffffffffffffffffffff1681526020019081526020016000205461219090919063ffffffff16565b6000808573ffffffffffffffffffffffffffffffffffffffff1673ffffffffffffffffffffffffffffffffffffffff168152602001908152602001600020819055506120a082600260008773ffffffffffffffffffffffffffffffffffffffff1673ffffffffffffffffffffffffffffffffffffffff16815260200190815260200160002060003373ffffffffffffffffffffffffffffffffffffffff1673ffffffffffffffffffffffffffffffffffffffff1681526020019081526020016000205461252e90919063ffffffff16565b600260008673ffffffffffffffffffffffffffffffffffffffff1673ffffffffffffffffffffffffffffffffffffffff16815260200190815260200160002060003373ffffffffffffffffffffffffffffffffffffffff1673ffffffffffffffffffffffffffffffffffffffff168152602001908152602001600020819055508273ffffffffffffffffffffffffffffffffffffffff168473ffffffffffffffffffffffffffffffffffffffff167fddf252ad1be2c89b69c2b068fc378daa952ba7f163c4a11628f55a4df523b3ef846040518082815260200191505060405180910390a3600190509392505050565b60008082840190508381101561220e576040517f08c379a000000000000000000000000000000000000000000000000000000000815260040180806020018281038252601b8152602001807f536166654d6174683a206164646974696f6e206f766572666c6f77000000000081525060200191505060405180910390fd5b8091505092915050565b600080600260003373ffffffffffffffffffffffffffffffffffffffff1673ffffffffffffffffffffffffffffffffffffffff16815260200190815260200160002060008573ffffffffffffffffffffffffffffffffffffffff1673ffffffffffffffffffffffffffffffffffffffff168152602001908152602001600020549050808310612328576000600260003373ffffffffffffffffffffffffffffffffffffffff1673ffffffffffffffffffffffffffffffffffffffff16815260200190815260200160002060008673ffffffffffffffffffffffffffffffffffffffff1673ffffffffffffffffffffffffffffffffffffffff168152602001908152602001600020819055506123bc565b61233b838261252e90919063ffffffff16565b600260003373ffffffffffffffffffffffffffffffffffffffff1673ffffffffffffffffffffffffffffffffffffffff16815260200190815260200160002060008673ffffffffffffffffffffffffffffffffffffffff1673ffffffffffffffffffffffffffffffffffffffff168152602001908152602001600020819055505b8373ffffffffffffffffffffffffffffffffffffffff163373ffffffffffffffffffffffffffffffffffffffff167f8c5be1e5ebec7d5bd14f71427d1e84f3dd0314c0f7b2291e5b200ac8c7c3b925600260003373ffffffffffffffffffffffffffffffffffffffff1673ffffffffffffffffffffffffffffffffffffffff16815260200190815260200160002060008873ffffffffffffffffffffffffffffffffffffffff1673ffffffffffffffffffffffffffffffffffffffff168152602001908152602001600020546040518082815260200191505060405180910390a3600191505092915050565b6000808314156124bb5760009050612528565b60008284029050828482816124cc57fe5b0414612523576040517f08c379a0000000000000000000000000000000000000000000000000000000008152600401808060200182810382526021815260200180612bcb6021913960400191505060405180910390fd5b809150505b92915050565b6000828211156125a6576040517f08c379a000000000000000000000000000000000000000000000000000000000815260040180806020018281038252601e8152602001807f536166654d6174683a207375627472616374696f6e206f766572666c6f77000081525060200191505060405180910390fd5b600082840390508091505092915050565b600080821161262e576040517f08c379a000000000000000000000000000000000000000000000000000000000815260040180806020018281038252601a8152602001807f536166654d6174683a206469766973696f6e206279207a65726f00000000000081525060200191505060405180910390fd5b600082848161263957fe5b0490508091505092915050565b60008060003373ffffffffffffffffffffffffffffffffffffffff1673ffffffffffffffffffffffffffffffffffffffff1681526020019081526020016000205482111561269357600080fd5b600073ffffffffffffffffffffffffffffffffffffffff168373ffffffffffffffffffffffffffffffffffffffff1614156126cd57600080fd5b61271e826000803373ffffffffffffffffffffffffffffffffffffffff1673ffffffffffffffffffffffffffffffffffffffff1681526020019081526020016000205461252e90919063ffffffff16565b6000803373ffffffffffffffffffffffffffffffffffffffff1673ffffffffffffffffffffffffffffffffffffffff168152602001908152602001600020819055506127b1826000808673ffffffffffffffffffffffffffffffffffffffff1673ffffffffffffffffffffffffffffffffffffffff1681526020019081526020016000205461219090919063ffffffff16565b6000808573ffffffffffffffffffffffffffffffffffffffff1673ffffffffffffffffffffffffffffffffffffffff168152602001908152602001600020819055508273ffffffffffffffffffffffffffffffffffffffff163373ffffffffffffffffffffffffffffffffffffffff167fddf252ad1be2c89b69c2b068fc378daa952ba7f163c4a11628f55a4df523b3ef846040518082815260200191505060405180910390a36001905092915050565b60006128f382600260003373ffffffffffffffffffffffffffffffffffffffff1673ffffffffffffffffffffffffffffffffffffffff16815260200190815260200160002060008673ffffffffffffffffffffffffffffffffffffffff1673ffffffffffffffffffffffffffffffffffffffff1681526020019081526020016000205461219090919063ffffffff16565b600260003373ffffffffffffffffffffffffffffffffffffffff1673ffffffffffffffffffffffffffffffffffffffff16815260200190815260200160002060008573ffffffffffffffffffffffffffffffffffffffff1673ffffffffffffffffffffffffffffffffffffffff168152602001908152602001600020819055508273ffffffffffffffffffffffffffffffffffffffff163373ffffffffffffffffffffffffffffffffffffffff167f8c5be1e5ebec7d5bd14f71427d1e84f3dd0314c0f7b2291e5b200ac8c7c3b925600260003373ffffffffffffffffffffffffffffffffffffffff1673ffffffffffffffffffffffffffffffffffffffff16815260200190815260200160002060008773ffffffffffffffffffffffffffffffffffffffff1673ffffffffffffffffffffffffffffffffffffffff168152602001908152602001600020546040518082815260200191505060405180910390a36001905092915050565b600073ffffffffffffffffffffffffffffffffffffffff168173ffffffffffffffffffffffffffffffffffffffff161415612ae4576040517f08c379a0000000000000000000000000000000000000000000000000000000008152600401808060200182810382526026815260200180612ba56026913960400191505060405180910390fd5b8073ffffffffffffffffffffffffffffffffffffffff16600360009054906101000a900473ffffffffffffffffffffffffffffffffffffffff1673ffffffffffffffffffffffffffffffffffffffff167f8be0079c531659141344cd1fd0a4f28419497f9722a3daafe3b4186f6b6457e060405160405180910390a380600360006101000a81548173ffffffffffffffffffffffffffffffffffffffff021916908373ffffffffffffffffffffffffffffffffffffffff1602179055505056fe4f776e61626c653a206e6577206f776e657220697320746865207a65726f2061646472657373536166654d6174683a206d756c7469706c69636174696f6e206f766572666c6f77a265627a7a723058206255e9032ecf36243913154bd700647810331e656c82cbc79cd07282ec98687d64736f6c63430005090032",
  "source": "pragma solidity ^0.5.9;\n\nimport \"./StandardToken.sol\";\nimport \"./Pausable.sol\";\n                                        \ncontract RozToken is StandardToken, Pausable {\n\n  string public name = \"ROZEUS\";\n  string public symbol = \"ROZ\";\n  uint8 public decimals = 8 ;\n  uint256 _totalSupply = 10000000000;  \n\n  bool public minted = false;\n\n  struct BusinessPartner {\n    uint256 account_total;\n    uint256 set_date;\n    uint256 set_period;\n    uint256 set_num;    \n    uint256 account_withdraw;\n  }\n\n  mapping (address => BusinessPartner ) m_bp;\n  BusinessPartner bp;  \n  \n  event LockupStep(address indexed target, string log, uint256 en, uint256 _t1, uint256 _t2 );\n  event Mint(address indexed to, uint256 amount);\n  event e_mintable();\n  event e_unmintable();\n  \n  modifier whenNotTeam() {\n    require(m_bp[msg.sender].account_total == 0);\n    _;\n  }\n\n  modifier whenMinted() {    \n    require(minted);\n    _;\n  }\n       \n  constructor() public {\n    totalSupply_ = _totalSupply * 10**uint(decimals);\n    \n    uint256 sale_fund = 2500000000 * 10**uint(decimals);\n    uint256 team_fund = 500000000 * 10**uint(decimals);\n    uint256 platform_fund = 4000000000 * 10**uint(decimals);\n    uint256 ecosystem_fund = 2000000000 * 10**uint(decimals);\n    uint256 bounty_fund = 1000000000 * 10**uint(decimals);\n\n    balances[0x3B71AB34A2d5e28B5E3E2B6248D4D45D12f664CC] = sale_fund;\n    balances[0x297f0a58e006A121C7af4F7B4Dd8a98383DC402C] = team_fund;\n    balances[0x3dd7Ad80806F59dD62dfFd51c4D078c4AdbB048f] = platform_fund;\n    balances[0x93f77A45933A22FA4bc43A9ceE3D707d2E537E2a] = ecosystem_fund;\n    balances[0x16C5EB21D3441eF11815CFbF2B34861264F87924] = bounty_fund;\n    \n    emit Transfer(address(0), 0x3B71AB34A2d5e28B5E3E2B6248D4D45D12f664CC, sale_fund);\n    emit Transfer(address(0), 0x297f0a58e006A121C7af4F7B4Dd8a98383DC402C, team_fund);\n    emit Transfer(address(0), 0x3dd7Ad80806F59dD62dfFd51c4D078c4AdbB048f, platform_fund);\n    emit Transfer(address(0), 0x93f77A45933A22FA4bc43A9ceE3D707d2E537E2a, ecosystem_fund);\n    emit Transfer(address(0), 0x16C5EB21D3441eF11815CFbF2B34861264F87924, bounty_fund);\n  }\n  \n  function setBusinessPartner(address _addr, uint256 _acc_tot, uint256 _date, uint256 _period, uint256 _num, uint256 _acc_with ) public onlyOwner returns (bool) {    \n    require(m_bp[_addr].account_total == 0 ) ;\n    bp = BusinessPartner(_acc_tot, _date , _period, _num, _acc_with);    \n    m_bp[_addr] = bp;\n    return true;    \n  }  \n  \n  function getBusinessPartner(address _addr ) view public returns (uint256,uint256,uint256,uint256,uint256) {    \n    return (m_bp[_addr].account_total,m_bp[_addr].set_date, m_bp[_addr].set_period, m_bp[_addr].set_num , m_bp[_addr].account_withdraw);\n  }\n\n  function transfer( address to, uint256 value ) public whenNotPaused returns (bool)  {\n    uint256 current_step = 0;\n    uint256 enable_balance;\n    if(m_bp[msg.sender].account_total > 0) {\n      uint256 setday = m_bp[msg.sender].set_period.mul(30 days);\n      uint256 elapsed_time = now.sub(m_bp[msg.sender].set_date);      \n      current_step = elapsed_time/setday;\n\n      uint256 account_total_mod = m_bp[msg.sender].account_total % m_bp[msg.sender].set_num;\n      uint256 account_total_sub = m_bp[msg.sender].account_total;\n      if(account_total_mod>0) account_total_sub = m_bp[msg.sender].account_total.sub(account_total_mod);\n      \n      enable_balance = (account_total_sub.div(m_bp[msg.sender].set_num)).mul(current_step).add(account_total_mod);\n      emit LockupStep(msg.sender,\": enable_balance!!!.\" , enable_balance , current_step , account_total_sub );  \n    }\n    require(m_bp[msg.sender].account_total == 0 || (enable_balance >= value && enable_balance.sub(m_bp[msg.sender].account_withdraw) >= value) ) ;    \n    require(m_bp[msg.sender].account_withdraw.add(value) > m_bp[msg.sender].account_withdraw);  \n    if(super.transfer(to, value)) {\n      if(m_bp[msg.sender].account_total > 0) m_bp[msg.sender].account_withdraw = m_bp[msg.sender].account_withdraw.add(value) ;\n      return true;\n    } else {\n      return false;\n    }\n  }\n\n  function transferFrom(address from, address to, uint256 value ) public whenNotPaused returns (bool) {\n    return super.transferFrom(from, to, value);\n  }\n\n  function approve(address spender, uint256 value ) public whenNotTeam whenNotPaused returns (bool) {\n    return super.approve(spender, value);\n  }\n   \n  function increaseApproval( address _spender, uint256 _addedValue ) public whenNotTeam whenNotPaused returns (bool)  {    \n    return super.increaseApproval(_spender, _addedValue);\n  }\n\n  function decreaseApproval( address _spender, uint256 _subtractedValue ) public whenNotTeam whenNotPaused returns (bool) {    \n    return super.decreaseApproval( _spender, _subtractedValue );\n  }\n  \n  function mintable() public onlyOwner {\n    minted = true;\n    emit e_mintable(); \n  }\n\n  function unmintable() public onlyOwner {\n    minted = false;\n    emit e_unmintable();\n  }\n  \n  function mint( address _to, uint256 _amount ) public whenNotPaused whenMinted onlyOwner returns (bool) {\n    require(_to > address(0));\n    totalSupply_ = totalSupply_.add(_amount);\n    balances[_to] = balances[_to].add(_amount);\n    \n    emit Mint(_to, _amount);\n    emit Transfer(address(0), _to, _amount);\n    return true;\n  }\n}",
  "sourcePath": "C:/Users/bflysoft/ROZEUS/contracts/RozToken.sol",
  "compiler": {
    "name": "solc",
    "version": "0.5.9+commit.e560f70d.Emscripten.clang"
  },
  "schemaVersion": "3.0.10",
  "updatedAt": "2019-06-07T04:13:26.664Z",
  "devdoc": {
    "methods": {
      "allowance(address,address)": {
        "details": "Function to check the amount of tokens that an owner allowed to a spender.",
        "params": {
          "_owner": "address The address which owns the funds.",
          "_spender": "address The address which will spend the funds."
        },
        "return": "A uint256 specifying the amount of tokens still available for the spender."
      },
      "balanceOf(address)": {
        "details": "Gets the balance of the specified address.",
        "params": {
          "_owner": "The address to query the the balance of."
        },
        "return": "An uint256 representing the amount owned by the passed address."
      },
      "isOwner()": {
        "details": "Returns true if the caller is the current owner."
      },
      "owner()": {
        "details": "Returns the address of the current owner."
      },
      "pause()": {
        "details": "called by the owner to pause, triggers stopped state"
      },
      "renounceOwnership()": {
        "details": "Leaves the contract without owner. It will not be possible to call `onlyOwner` functions anymore. Can only be called by the current owner.     * > Note: Renouncing ownership will leave the contract without an owner, thereby removing any functionality that is only available to the owner."
      },
      "totalSupply()": {
        "details": "Total number of tokens in existence"
      },
      "transferOwnership(address)": {
        "details": "Transfers ownership of the contract to a new account (`newOwner`). Can only be called by the current owner."
      },
      "unpause()": {
        "details": "called by the owner to unpause, returns to normal state"
      }
    }
  },
  "userdoc": {
    "methods": {}
  }
}